00COTAHIST.2019BOVESPA 20190412                                                                                                                                                                                                                      
012019041202AALR3       010ALLIAR      ON      NM   R$  000000000144400000000014550000000001416000000000144100000000014350000000001430000000000143500309000000000000127100000000000183153300000000000000009999123100000010000000000000BRAALRACNOR6100
012019041202AAPL34      010APPLE       DRN          R$  000000000776600000000077680000000007656000000000773200000000077680000000007700000000000776800009000000000000005500000000000042528000000000000000009999123100000010000000000000BRAAPLBDR004128
012019041202ABCB4       010ABC BRASIL  PN      N2   R$  000000000187200000000019050000000001849000000000187800000000018520000000001850000000000185603015000000000000413900000000000777464100000000000000009999123100000010000000000000BRABCBACNPR4131
012019041202ABEV3       010AMBEV S/A   ON           R$  000000000170600000000017500000000001700000000000171800000000017060000000001706000000000170840387000000000029774300000000051152280200000000000000009999123100000010000000000000BRABEVACNOR1121
012019041202ADHM3       010ADVANCED-DH ON           R$  000000000015100000000001550000000000151000000000015100000000001550000000000151000000000015500009000000000000015800000000000002389500000000000000009999123100000010000000000000BRADHMACNOR9101
012019041202AGRO3       010BRASILAGRO  ON      NM   R$  000000000156000000000015610000000001536000000000155300000000015580000000001540000000000155800097000000000000032400000000000050349100000000000000009999123100000010000000000000BRAGROACNOR7108
012019041202ALPA3       010ALPARGATAS  ON      N1   R$  000000000148500000000014850000000001451000000000147000000000014510000000001431000000000152400003000000000000000300000000000000441200000000000000009999123100000010000000000000BRALPAACNOR0228
012019041202ALPA4       010ALPARGATAS  PN      N1   R$  000000000150900000000015400000000001505000000000152100000000015200000000001510000000000152001274000000000000283000000000000430505400000000000000009999123100000010000000000000BRALPAACNPR7228
012019041202ALSC3       010ALIANSCE    ON      NM   R$  000000000189100000000019030000000001825000000000185900000000018480000000001845000000000184802956000000000000656700000000001221320900000000000000009999123100000010000000000000BRALSCACNOR0111
012019041202ALUP3       010ALUPAR      ON      N2   R$  000000000080500000000008440000000000805000000000081000000000008300000000000700000000000082900007000000000000004400000000000003565400000000000000009999123100000010000000000000BRALUPACNOR8109
012019041202ALUP4       010ALUPAR      PN      N2   R$  000000000073000000000007300000000000724000000000072400000000007240000000000724000000000072500004000000000000002000000000000001449500000000000000009999123100000010000000000000BRALUPACNPR5109
012019041202ALUP11      010ALUPAR      UNT     N2   R$  000000000225300000000022700000000002240000000000225400000000022640000000002255000000000226901571000000000000252300000000000568913000000000000000009999123100000010000000000000BRALUPCDAM15109
012019041202AMAR3       010LOJAS MARISAON      NM   R$  000000000077800000000007780000000000750000000000076400000000007770000000000752000000000077703113000000000001506500000000001152408700000000000000009999123100000010000000000000BRAMARACNOR4112
012019041202AMGN34      010AMGEN       DRN          R$  000000007453300000000745330000000074533000000007453300000000745330000000000000000000000000000001000000000000000100000000000007453300000000000000009999123100000010000000000000BRAMGNBDR004129
012019041202AMZO34      010AMAZON      DRN          R$  000000035904200000003590420000000359042000000035904200000003590420000000351000000000000000000001000000000000000100000000000035904200000000000000009999123100000010000000000000BRAMZOBDR002101
012019041202ANIM3       010ANIMA       ON      NM   R$  000000000193600000000019360000000001902000000000191300000000019120000000001912000000000191901273000000000000730500000000001397487700000000000000009999123100000010000000000000BRANIMACNOR6105
012019041202APER3       010ALPER S.A.  ON      NM   R$  000000000246300000000024990000000002429000000000245700000000024620000000002360000000000246000049000000000000007800000000000019164600000000000000009999123100000010000000000000BRAPERACNOR9100
012019041202ARZZ3       010AREZZO CO   ON      NM   R$  000000000484600000000048840000000004768000000000483700000000048500000000004846000000000485001954000000000000264900000000001281476900000000000000009999123100000010000000000000BRARZZACNOR3133
012019041202ATOM3       010ATOMPAR     ON           R$  000000000018800000000001910000000000184000000000018600000000001890000000000185000000000018600028000000000000025200000000000004706800000000000000009999123100000010000000000000BRATOMACNOR1103
012019041202ATTB34      010ATT INC     DRN ED       R$  000000001256200000000125620000000012562000000001256200000000125620000000000000000000001256200001000000000000000200000000000002512400000000000000009999123100000010000000000000BRATTBBDR007127
012019041202AZEV3       010AZEVEDO     ON           R$  000000000045500000000004550000000000436000000000044100000000004360000000000435000000000044900010000000000000001700000000000000750000000000000000009999123100000010000000000000BRAZEVACNOR0116
012019041202AZEV4       010AZEVEDO     PN           R$  000000000008600000000000890000000000080000000000008200000000000810000000000081000000000008200377000000000000804700000000000066397600000000000000009999123100000010000000000000BRAZEVACNPR7116
012019041202AZUL4       010AZUL        PN      N2   R$  000000000343900000000035140000000003326000000000339600000000033750000000003374000000000338009605000000000002251000000000007646023500000000000000009999123100000010000000000000BRAZULACNPR4100
012019041202B3SA3       010B3          ON      NM   R$  000000000310700000000031740000000003055000000000309800000000030680000000003068000000000307024187000000000007625300000000023628183100000000000000009999123100000010000000000000BRB3SAACNOR6105
012019041202BAHI3       010BAHEMA      ON      MA   R$  000000001279000000000127900000000012202000000001240800000000122020000000012117000000001348800005000000000000000500000000000006204300000000000000009999123100000010000000000000BRBAHIACNOR1070
012019041202BAUH4       010EXCELSIOR   PN           R$  000000000260000000000026900000000002450000000000252100000000024800000000002480000000000252000030000000000000006800000000000017143500000000000000009999123100000010000000000000BRBAUHACNPR3114
012019041202BBAS3       010BRASIL      ON      NM   R$  000000000468500000000048350000000004630000000000471400000000046730000000004660000000000467344444000000000017500900000000082512570800000000000000009999123100000010000000000000BRBBASACNOR3283
012019041202BBDC3       010BRADESCO    ON      N1   R$  000000000304600000000031110000000003016000000000305600000000030500000000003028000000000305014110000000000003294400000000010070060300000000000000009999123100000010000000000000BRBBDCACNOR1693
012019041202BBDC4       010BRADESCO    PN      N1   R$  000000000348600000000035710000000003461000000000351000000000034900000000003485000000000349050693000000000021137100000000074207698000000000000000009999123100000010000000000000BRBBDCACNPR8693
012019041202BBRK3       010BR BROKERS  ON      NM   R$  000000000051300000000005130000000000491000000000050400000000005080000000000500000000000050800212000000000000119000000000000060025300000000000000009999123100000010000000000000BRBBRKACNOR4113
012019041202BBSE3       010BBSEGURIDADEON      NM   R$  000000000273100000000028000000000002715000000000275700000000027400000000002739000000000274021387000000000004060700000000011198578900000000000000009999123100000010000000000000BRBBSEACNOR5113
012019041202BEEF3       010MINERVA     ON      NM   R$  000000000074100000000007430000000000716000000000072600000000007160000000000716000000000071906433000000000002905800000000002110805400000000000000009999123100000010000000000000BRBEEFACNOR6108
012019041202BEES3       010BANESTES    ON           R$  000000000048400000000004900000000000482000000000048400000000004880000000000483000000000048800034000000000000010800000000000005236400000000000000009999123100000010000000000000BRBEESACNOR9322
012019041202BEES4       010BANESTES    PN           R$  000000000048000000000004970000000000480000000000049200000000004940000000000485000000000049300003000000000000000800000000000000394100000000000000009999123100000010000000000000BRBEESACNPR6247
012019041202BERK34      010BERKSHIRE   DRN          R$  000000008160500000000816050000000080500000000008138400000000805000000000076000000000000000000002000000000000000500000000000040692000000000000000009999123100000010000000000000BRBERKBDR002100
012019041202BGIP4       010BANESE      PN           R$  000000000360900000000036600000000003606000000000363300000000036590000000003000000000000366000004000000000000000400000000000001453400000000000000009999123100000010000000000000BRBGIPACNPR8196
012019041202BIDI4       010BANCO INTER PN      N1   R$  000000000541000000000056490000000005410000000000551500000000055200000000005490000000000552501250000000000000439300000000002422802300000000000000009999123100000010000000000000BRBIDIACNPR0104
012019041202BIOM3       010BIOMM       ON      MA   R$  000000000062200000000006280000000000589000000000060900000000006080000000000608000000000062400198000000000000069200000000000042170200000000000000009999123100000010000000000000BRBIOMACNOR2106
012019041202BKBR3       010BK BRASIL   ON      NM   R$  000000000228800000000022940000000002229000000000228000000000022850000000002248000000000228501373000000000000286800000000000654075100000000000000009999123100000010000000000000BRBKBRACNOR4102
012019041202BMEB3       010MERC BRASIL ON           R$  000000000077000000000007700000000000753000000000076400000000007600000000000701000000000089900004000000000000001000000000000000764300000000000000009999123100000010000000000000BRBMEBACNOR8195
012019041202BMEB4       010MERC BRASIL PN           R$  000000000071000000000007290000000000705000000000070700000000007190000000000710000000000072000015000000000000013900000000000009833900000000000000009999123100000010000000000000BRBMEBACNPR5200
012019041202BOAC34      010BANK AMERICADRN          R$  000000001163600000000117730000000011636000000001167300000000117730000000000000000000001177300003000000000000000900000000000010506200000000000000009999123100000010000000000000BRBOACBDR004134
012019041202BOBR4       010BOMBRIL     PN           R$  000000000022600000000002260000000000220000000000022100000000002200000000000220000000000022400017000000000000007400000000000001639700000000000000009999123100000010000000000000BRBOBRACNPR3128
012019041202BPAC3       010BTGP BANCO  ON           R$  000000000178000000000017800000000001775000000000177800000000017750000000001768000000000177500002000000000000000300000000000000533500000000000000009999123100000010000000000000BRBPACACNOR7119
012019041202BPAC5       010BTGP BANCO  PNA          R$  000000000111500000000011150000000001115000000000111500000000011150000000001063000000000114900001000000000000000100000000000000111500000000000000009999123100000010000000000000BRBPACACNPA0119
012019041202BPAC11      010BTGP BANCO  UNT          R$  000000000372500000000037700000000003644000000000372500000000037390000000003733000000000373903549000000000000620000000000002310025800000000000000009999123100000010000000000000BRBPACUNT006104
012019041202BPAN4       010BANCO PAN   PN      N1   R$  000000000031900000000003190000000000307000000000031200000000003110000000000311000000000031300369000000000000447400000000000139950100000000000000009999123100000010000000000000BRBPANACNPR1106
012019041202BRAP3       010BRADESPAR   ON      N1   R$  000000000278300000000028980000000002781000000000282400000000028370000000002790000000000283800044000000000000007400000000000020897800000000000000009999123100000010000000000000BRBRAPACNOR5134
012019041202BRAP4       010BRADESPAR   PN      N1   R$  000000000324900000000033090000000003211000000000325800000000032200000000003219000000000322011919000000000003481100000000011343026400000000000000009999123100000010000000000000BRBRAPACNPR2134
012019041202BRDT3       010PETROBRAS BRON      NM   R$  000000000225000000000022860000000002190000000000221500000000022000000000002199000000000220022978000000000009092700000000020141959600000000000000009999123100000010000000000000BRBRDTACNOR1117
012019041202BRFS3       010BRF SA      ON      NM   R$  000000000249000000000025790000000002475000000000253500000000025630000000002562000000000256526041000000000009816000000000024889455100000000000000009999123100000010000000000000BRBRFSACNOR8118
012019041202BRGE3       010ALFA CONSORCON           R$  000000000042600000000004260000000000426000000000042600000000004260000000000426000000000047500001000000000000001900000000000000809400000000000000009999123100000010000000000000BRBRGEACNOR6202
012019041202BRGE12      010ALFA CONSORCPNF          R$  000000000032300000000003230000000000291000000000032000000000002910000000000290000000000032600004000000000000001200000000000000384400000000000000009999123100000010000000000000BRBRGEACNPF8096
012019041202BRIV3       010ALFA INVEST ON           R$  000000000060100000000006010000000000601000000000060100000000006010000000000600000000000062900002000000000000000200000000000000120200000000000000009999123100000010000000000000BRBRIVACNOR6205
012019041202BRKM3       010BRASKEM     ON      N1   R$  000000000502700000000050380000000004952000000000500600000000050380000000004904000000000503900025000000000000004500000000000022527700000000000000009999123100000010000000000000BRBRKMACNOR1116
012019041202BRKM5       010BRASKEM     PNA     N1   R$  000000000490000000000049560000000004827000000000489700000000049080000000004908000000000490907418000000000001424300000000006976141100000000000000009999123100000010000000000000BRBRKMACNPA4116
012019041202BRML3       010BR MALLS PARON      NM   R$  000000000116900000000011770000000001141000000000116300000000011410000000001141000000000115225241000000000012327600000000014342372100000000000000009999123100000010000000000000BRBRMLACNOR9113
012019041202BRPR3       010BR PROPERT  ON      NM   R$  000000000086900000000008820000000000843000000000084900000000008460000000000845000000000084601849000000000001790000000000001519895700000000000000009999123100000010000000000000BRBRPRACNOR9118
012019041202BRSR3       010BANRISUL    ON      N1   R$  000000000237000000000023700000000002261000000000233000000000022610000000002260000000000232500031000000000000004700000000000010951400000000000000009999123100000010000000000000BRBRSRACNOR3161
012019041202BRSR5       010BANRISUL    PNA     N1   R$  000000000260000000000026000000000002600000000000260000000000026000000000002550000000000312000002000000000000000200000000000000520000000000000000009999123100000010000000000000BRBRSRACNPA6165
012019041202BRSR6       010BANRISUL    PNB     N1   R$  000000000236400000000024060000000002306000000000233500000000023450000000002340000000000234504982000000000000978100000000002284684200000000000000009999123100000010000000000000BRBRSRACNPB4164
012019041202BSEV3       010BIOSEV      ON      NM   R$  000000000025600000000002620000000000255000000000025800000000002580000000000258000000000026000027000000000000012100000000000003124600000000000000009999123100000010000000000000BRBSEVACNOR3102
012019041202BTOW3       010B2W DIGITAL ON      NM   R$  000000000378900000000038290000000003677000000000375300000000037600000000003756000000000376112130000000000002686200000000010081563200000000000000009999123100000010000000000000BRBTOWACNOR8109
012019041202BTTL3       010BATTISTELLA ON           R$  000000000035600000000003770000000000356000000000036400000000003690000000000355000000000037000004000000000000000400000000000000145800000000000000009999123100000010000000000000BRBTTLACNOR0108
012019041202CAMB4       010CAMBUCI     PN           R$  000000000330000000000034000000000003300000000000334900000000033000000000003200000000000339900007000000000000001400000000000004688900000000000000009999123100000010000000000000BRCAMBACNPR1119
012019041202CAML3       010CAMIL       ON      NM   R$  000000000068600000000007070000000000681000000000069700000000006890000000000686000000000068903403000000000000959000000000000668584900000000000000009999123100000010000000000000BRCAMLACNOR3104
012019041202CARD3       010CSU CARDSYSTON      NM   R$  000000000067400000000006780000000000665000000000066900000000006660000000000665000000000066600360000000000000071800000000000048094100000000000000009999123100000010000000000000BRCARDACNOR9113
012019041202CCPR3       010CYRE COM-CCPON      NM   R$  000000000121000000000012200000000001196000000000121500000000012200000000001220000000000122900006000000000000001900000000000002309600000000000000009999123100000010000000000000BRCCPRACNOR9113
012019041202CCRO3       010CCR SA      ON      NM   R$  000000000125000000000012710000000001198000000000123900000000012380000000001229000000000123843459000000000011879400000000014724789600000000000000009999123100000010000000000000BRCCROACNOR2134
012019041202CCXC3       010CCX CARVAO  ON      NM   R$  000000000028200000000002820000000000261000000000027300000000002620000000000262000000000026900019000000000000007000000000000001915600000000000000009999123100000010000000000000BRCCXCACNOR5103
012019041202CEBR5       010CEB         PNA          R$  000000000326100000000032610000000003261000000000326100000000032610000000000000000000000370000001000000000000000100000000000000326100000000000000009999123100000010000000000000BRCEBRACNPA8115
012019041202CEBR6       010CEB         PNB          R$  000000000215200000000021520000000002110000000000213200000000021100000000002052000000000214900012000000000000003900000000000008318000000000000000009999123100000010000000000000BRCEBRACNPB6115
012019041202CEDO4       010CEDRO       PN      N1   R$  000000000060000000000006000000000000600000000000060000000000006000000000000554000000000060000001000000000000000100000000000000060000000000000000009999123100000010000000000000BRCEDOACNPR5128
012019041202CEED3       010CEEE-D      ON      N1   R$  000000001000000000000100000000000010000000000001000000000000100000000000005500000000001000000001000000000000000100000000000001000000000000000000009999123100000010000000000000BRCEEDACNOR9102
012019041202CELP3       010CELPA       ON           R$  000000000023000000000002300000000000214000000000021900000000002150000000000215000000000022000110000000000000129000000000000028348700000000000000009999123100000010000000000000BRCELPACNOR8117
012019041202CESP3       010CESP        ON      N1   R$  000000000223000000000022600000000002215000000000224800000000022600000000002211000000000226000033000000000000017700000000000039804500000000000000009999123100000010000000000000BRCESPACNOR3167
012019041202CESP6       010CESP        PNB     N1   R$  000000000251400000000025650000000002488000000000252100000000025470000000002547000000000255002204000000000000440200000000001110120300000000000000009999123100000010000000000000BRCESPACNPB4126
012019041202CGAS3       010COMGAS      ON           R$  000000000761000000000076100000000007610000000000761000000000076100000000007563000000000774400001000000000000000100000000000000761000000000000000009999123100000010000000000000BRCGASACNOR0148
012019041202CGAS5       010COMGAS      PNA          R$  000000000820400000000082100000000008195000000000820000000000082000000000008200000000000821800049000000000000055400000000000454305400000000000000009999123100000010000000000000BRCGASACNPA3145
012019041202CGRA4       010GRAZZIOTIN  PN           R$  000000000238200000000023820000000002311000000000232400000000023180000000002317000000000232500141000000000000027200000000000063218000000000000000009999123100000010000000000000BRCGRAACNPR9069
012019041202CHVX34      010CHEVRON     DRN          R$  000000002331300000000233130000000023313000000002331300000000233130000000000000000000002331300001000000000000000100000000000002331300000000000000009999123100000010000000000000BRCHVXBDR008132
012019041202CIEL3       010CIELO       ON      NM   R$  000000000092900000000009380000000000910000000000092200000000009250000000000917000000000092524060000000000011790100000000010879918800000000000000009999123100000010000000000000BRCIELACNOR3135
012019041202CLSC4       010CELESC      PN      N2   R$  000000000484000000000048400000000004840000000000484000000000048400000000004840000000000495900003000000000000000500000000000002420000000000000000009999123100000010000000000000BRCLSCACNPR3112
012019041202CMCS34      010COMCAST     DRN          R$  000000001607700000000160770000000016077000000001607700000000160770000000000000000000000000000001000000000000000900000000000014469300000000000000009999123100000010000000000000BRCMCSBDR008130
012019041202CMIG3       010CEMIG       ON      N1   R$  000000000166200000000016770000000001606000000000162900000000016470000000001630000000000164704918000000000003257000000000005307026200000000000000009999123100000010000000000000BRCMIGACNOR6221
012019041202CMIG4       010CEMIG       PN      N1   R$  000000000142600000000014450000000001391000000000140700000000014010000000001401000000000140526740000000000012634500000000017782612200000000000000009999123100000010000000000000BRCMIGACNPR3222
012019041202COCE5       010COELCE      PNA          R$  000000000517000000000051860000000005150000000000516900000000051860000000005186000000000521200028000000000000018300000000000094605000000000000000009999123100000010000000000000BRCOCEACNPA3138
012019041202COPH34      010COPHILLIPS  DRN          R$  000000000653700000000065370000000006537000000000653700000000065370000000000000000000000657400001000000000000000400000000000002614800000000000000009999123100000010000000000000BRCOPHBDR009129
012019041202COWC34      010COSTCO      DRN          R$  000000002355200000000235520000000023552000000002355200000000235520000000000000000000000000000001000000000000000800000000000018841600000000000000009999123100000010000000000000BRCOWCBDR006113
012019041202CPFE3       010CPFL ENERGIAON      NM   R$  000000000284000000000028840000000002829000000000285600000000028840000000002841000000000288402088000000000000526200000000001502841800000000000000009999123100000010000000000000BRCPFEACNOR0128
012019041202CPLE3       010COPEL       ON      N1   R$  000000000318500000000031850000000003087000000000311300000000030990000000003092000000000309900534000000000000090400000000000281461400000000000000009999123100000010000000000000BRCPLEACNOR8137
012019041202CPLE6       010COPEL       PNB     N1   R$  000000000364100000000036650000000003545000000000360700000000036010000000003601000000000360504755000000000001043200000000003763820000000000000000009999123100000010000000000000BRCPLEACNPB9134
012019041202CPRE3       010CPFL RENOVAVON      NM   R$  000000000145100000000014510000000001451000000000145100000000014510000000001430000000000156200001000000000000000100000000000000145100000000000000009999123100000010000000000000BRCPREACNOR5102
012019041202CRFB3       010CARREFOUR BRON      NM   R$  000000000197300000000020080000000001950000000000197800000000019590000000001959000000000196508946000000000003090600000000006114980300000000000000009999123100000010000000000000BRCRFBACNOR2103
012019041202CRPG3       010CRISTAL     ON           R$  000000000340100000000034010000000003350000000000338500000000033500000000003350000000000400000006000000000000000600000000000002031400000000000000009999123100000010000000000000BRCRPGACNOR0106
012019041202CRPG5       010CRISTAL     PNA          R$  000000000316800000000032000000000002900000000000300500000000031840000000003170000000000318400468000000000000105700000000000317656400000000000000009999123100000010000000000000BRCRPGACNPA3106
012019041202CRPG6       010CRISTAL     PNB          R$  000000000322100000000032210000000002886000000000294700000000032010000000002990000000000320100051000000000000007700000000000022693600000000000000009999123100000010000000000000BRCRPGACNPB1106
012019041202CSAN3       010COSAN       ON      NM   R$  000000000447400000000045300000000004400000000000444500000000044040000000004404000000000440906224000000000000970800000000004315344300000000000000009999123100000010000000000000BRCSANACNOR6118
012019041202CSMG3       010COPASA      ON      NM   R$  000000000630000000000063190000000006164000000000621300000000061640000000006164000000000619001585000000000000370000000000002299136500000000000000009999123100000010000000000000BRCSMGACNOR5152
012019041202CSNA3       010SID NACIONALON           R$  000000000153000000000016390000000001523000000000160500000000016150000000001614000000000161724320000000000020218700000000032462884100000000000000009999123100000010000000000000BRCSNAACNOR6249
012019041202CTGP34      010CITIGROUP   DRN          R$  000000002633200000000263320000000026332000000002633200000000263320000000000000000000002633200001000000000000000100000000000002633200000000000000009999123100000010000000000000BRCTGPBDR000133
012019041202CTKA4       010KARSTEN     PN           R$  000000000033800000000003600000000000331000000000033800000000003480000000000322000000000034900011000000000000002600000000000000881200000000000000009999123100000010000000000000BRCTKAACNPR7043
012019041202CTNM3       010COTEMINAS   ON           R$  000000000115000000000012000000000001150000000000116400000000011520000000001110000000000124700004000000000000000700000000000000815200000000000000009999123100000010000000000000BRCTNMACNOR9130
012019041202CTNM4       010COTEMINAS   PN           R$  000000000107700000000011280000000001050000000000110400000000011280000000001103000000000112800065000000000000029000000000000032022200000000000000009999123100000010000000000000BRCTNMACNPR6129
012019041202CTSA3       010SANTANENSE  ON           R$  000000000050800000000005140000000000508000000000051000000000005140000000000510000000000051400008000000000000001800000000000000919200000000000000009999123100000010000000000000BRCTSAACNOR3058
012019041202CTSA4       010SANTANENSE  PN           R$  000000000059600000000005990000000000596000000000059800000000005990000000000580000000000061900002000000000000001000000000000000598700000000000000009999123100000010000000000000BRCTSAACNPR0058
012019041202CVCB3       010CVC BRASIL  ON      NM   R$  000000000513200000000052410000000005060000000000511700000000051000000000005083000000000510304754000000000000699700000000003580383800000000000000009999123100000010000000000000BRCVCBACNOR1110
012019041202CVSH34      010CVS HEALTH  DRN          R$  000000001025000000000102500000000010250000000001025000000000102500000000000000000000000000000001000000000000019600000000000200900000000000000000009999123100000010000000000000BRCVSHBDR008111
012019041202CYRE3       010CYRELA REALTON      NM   R$  000000000158900000000016150000000001563000000000158600000000015760000000001576000000000157910559000000000001870800000000002967206500000000000000009999123100000010000000000000BRCYREACNOR7131
012019041202DHER34      010DANAHER CORPDRN          R$  000000001270600000000127060000000012706000000001270600000000127060000000000000000000000000000001000000000000000100000000000001270600000000000000009999123100000010000000000000BRDHERBDR004116
012019041202DIRR3       010DIRECIONAL  ON      NM   R$  000000000085200000000008590000000000821000000000084000000000008310000000000831000000000083503368000000000000708700000000000595992800000000000000009999123100000010000000000000BRDIRRACNOR0111
012019041202DISB34      010WALT DISNEY DRN          R$  000000004440000000000503720000000044400000000004951300000000503720000000049451000000000000000005000000000000005400000000000267373000000000000000009999123100000010000000000000BRDISBBDR006112
012019041202DMMO3       010DOMMO       ON           R$  000000000006500000000000690000000000065000000000006600000000000650000000000064000000000006500699000000000004386400000000000291280500000000000000009999123100000010000000000000BRDMMOACNOR0101
012019041202DTCY3       010DTCOM-DIRECTON           R$  000000000029000000000002900000000000285000000000028600000000002850000000000280000000000028500018000000000000016000000000000004582000000000000000009999123100000010000000000000BRDTCYACNOR5108
012019041202DTEX3       010DURATEX     ON      NM   R$  000000000104400000000010470000000001006000000000103000000000010370000000001037000000000103805326000000000001177800000000001214138800000000000000009999123100000010000000000000BRDTEXACNOR3127
012019041202EALT4       010ACO ALTONA  PN           R$  000000000047200000000004840000000000460000000000046600000000004650000000000457000000000046500032000000000000007300000000000003402500000000000000009999123100000010000000000000BREALTACNPR1131
012019041202ECOR3       010ECORODOVIAS ON      NM   R$  000000000095000000000009600000000000910000000000093000000000009190000000000918000000000091917783000000000008175200000000007606059700000000000000009999123100000010000000000000BRECORACNOR8116
012019041202ECPR3       010ENCORPAR    ON           R$  000000000899000000000089900000000008990000000000899000000000089900000000004010000000000899900001000000000000000100000000000000899000000000000000009999123100000010000000000000BRECPRACNOR5110
012019041202EGIE3       010ENGIE BRASILON      NM   R$  000000000418900000000042410000000004136000000000418200000000042010000000004198000000000421505310000000000001180200000000004935618100000000000000009999123100000010000000000000BREGIEACNOR9110
012019041202EKTR4       010ELEKTRO     PN           R$  000000000180000000000018470000000001800000000000183900000000018470000000001801000000000185000005000000000000011200000000000020606600000000000000009999123100000010000000000000BREKTRACNPR7142
012019041202ELEK3       010ELEKEIROZ   ON           R$  000000000111500000000011150000000001115000000000111500000000011150000000001105000000000132900001000000000000000100000000000000111500000000000000009999123100000010000000000000BRELEKACNOR5122
012019041202ELET3       010ELETROBRAS  ON      N1   R$  000000000325000000000033610000000003092000000000319300000000031310000000003131000000000314023401000000000006447300000000020592046900000000000000009999123100000010000000000000BRELETACNOR6152
012019041202ELET6       010ELETROBRAS  PNB     N1   R$  000000000354100000000035980000000003370000000000346300000000034020000000003400000000000340216121000000000002798200000000009691863200000000000000009999123100000010000000000000BRELETACNPB7069
012019041202ELPL3       010ELETROPAULO ON      NM   R$  000000000345100000000034530000000003450000000000345000000000034500000000003430000000000346500031000000000000009400000000000032432900000000000000009999123100000010000000000000BRELPLACNOR9131
012019041202EMAE3       010EMAE        ON           R$  000000000160600000000016060000000001606000000000160600000000016060000000001605000000000000000002000000000000000200000000000000321200000000000000009999123100000010000000000000BREMAEACNOR4111
012019041202EMBR3       010EMBRAER     ON      NM   R$  000000000184300000000018750000000001841000000000185500000000018570000000001852000000000185707922000000000002069500000000003839624000000000000000009999123100000010000000000000BREMBRACNOR4189
012019041202ENBR3       010ENERGIAS BR ON      NM   R$  000000000167900000000017410000000001638000000000167700000000016810000000001681000000000168416794000000000006575300000000011030175000000000000000009999123100000010000000000000BRENBRACNOR2126
012019041202ENEV3       010ENEVA       ON      NM   R$  000000000192100000000019220000000001902000000000190700000000019220000000001914000000000192204060000000000001280600000000002442655200000000000000009999123100000010000000000000BRENEVACNOR8104
012019041202ENGI3       010ENERGISA    ON      N2   R$  000000000147500000000015260000000001475000000000150400000000014940000000001477000000000154500009000000000000001200000000000001805500000000000000009999123100000010000000000000BRENGIACNOR0135
012019041202ENGI4       010ENERGISA    PN      N2   R$  000000000060500000000006060000000000600000000000060300000000006020000000000603000000000061000022000000000000006200000000000003738600000000000000009999123100000010000000000000BRENGIACNPR7131
012019041202ENGI11      010ENERGISA    UNT     N2   R$  000000000392300000000039600000000003883000000000389900000000038900000000003890000000000389902659000000000000714900000000002787430500000000000000009999123100000010000000000000BRENGICDAM16125
012019041202ENMA3B      010CEMAR       ON      MB   R$  000000000341000000000034100000000003410000000000341000000000034100000000003410000000000344900005000000000000000500000000000001705000000000000000009999123100000010000000000000BRENMAACNOR5116
012019041202ENMT3       010ENERGISA MT ON           R$  000000000215000000000021500000000002150000000000215000000000021500000000000300000000000220000002000000000000002100000000000004515000000000000000009999123100000010000000000000BRENMTACNOR5108
012019041202EQTL3       010EQUATORIAL  ON      NM   R$  000000000787000000000080000000000007807000000000787800000000078710000000007852000000000787106623000000000001837000000000014473477800000000000000009999123100000010000000000000BREQTLACNOR0123
012019041202ESTC3       010ESTACIO PARTON      NM   R$  000000000266100000000027500000000002627000000000267500000000026610000000002661000000000266515126000000000005018900000000013426000500000000000000009999123100000010000000000000BRESTCACNOR5116
012019041202EUCA4       010EUCATEX     PN      N1   R$  000000000042000000000004220000000000415000000000041900000000004190000000000414000000000041900015000000000000003900000000000001635200000000000000009999123100000010000000000000BREUCAACNPR8037
012019041202EVEN3       010EVEN        ON      NM   R$  000000000059100000000005940000000000566000000000058100000000005770000000000577000000000057802408000000000000670200000000000389670500000000000000009999123100000010000000000000BREVENACNOR8111
012019041202EXXO34      010EXXON MOBIL DRN          R$  000000000789300000000078930000000007893000000000789300000000078930000000000000000000000789300001000000000000000300000000000002367900000000000000009999123100000010000000000000BREXXOBDR006134
012019041202EZTC3       010EZTEC       ON      NM   R$  000000000259000000000026100000000002477000000000253200000000024770000000002477000000000253001994000000000000397800000000001007536000000000000000009999123100000010000000000000BREZTCACNOR0112
012019041202FBOK34      010FACEBOOK    DRN          R$  000000003468500000000346850000000034685000000003468500000000346850000000027000000000003748000001000000000000000100000000000003468500000000000000009999123100000010000000000000BRFBOKBDR006100
012019041202FCXO34      010FREEPORT    DRN ED       R$  000000000531800000000053180000000005318000000000531800000000053180000000000000000000000000000001000000000000000600000000000003190800000000000000009999123100000010000000000000BRFCXOBDR007129
012019041202FESA4       010FERBASA     PN      N1   R$  000000000204000000000020940000000002028000000000205300000000020350000000002034000000000203500404000000000000124400000000000255455300000000000000009999123100000010000000000000BRFESAACNPR5061
012019041202FJTA3       010FORJA TAURUSON      N2   R$  000000000039400000000003940000000000381000000000038300000000003810000000000380000000000038100116000000000000053000000000000020348500000000000000009999123100000010000000000000BRFJTAACNOR5156
012019041202FJTA4       010FORJA TAURUSPN      N2   R$  000000000034700000000003520000000000335000000000034200000000003350000000000334000000000033500763000000000000745600000000000255505200000000000000009999123100000010000000000000BRFJTAACNPR2157
012019041202FLRY3       010FLEURY      ON      NM   R$  000000000222700000000022460000000002131000000000218600000000021900000000002187000000000219212791000000000002224400000000004862938900000000000000009999123100000010000000000000BRFLRYACNOR5124
012019041202FRAS3       010FRAS-LE     ON      N1   R$  000000000050100000000005060000000000496000000000050300000000004980000000000497000000000049800135000000000000327500000000000164975100000000000000009999123100000010000000000000BRFRASACNOR0146
012019041202GBIO33      010BIOTOSCANA  DR3          R$  000000000078700000000007880000000000766000000000077600000000007720000000000771000000000077200547000000000000132900000000000103146000000000000000009999123100000010000000000000BRGBIOBDR008100
012019041202GEOO34      010GE          DRN          R$  000000000353500000000035350000000003535000000000353500000000035350000000000000000000000353500001000000000000000300000000000001060500000000000000009999123100000010000000000000BRGEOOBDR000135
012019041202GEPA3       010GER PARANAP ON           R$  000000000370000000000037000000000003700000000000370000000000037000000000003650000000000390000001000000000000000100000000000000370000000000000000009999123100000010000000000000BRGEPAACNOR2142
012019041202GEPA4       010GER PARANAP PN           R$  000000000400000000000040000000000004000000000000400000000000040000000000003995000000000400000008000000000000001200000000000004800000000000000000009999123100000010000000000000BRGEPAACNPR9149
012019041202GFSA3       010GAFISA      ON      NM   R$  000000000077800000000008350000000000778000000000080600000000007820000000000782000000000078404126000000000002373800000000001915157800000000000000009999123100000010000000000000BRGFSAACNOR3115
012019041202GGBR3       010GERDAU      ON      N1   R$  000000000122500000000012510000000001210000000000122200000000012510000000001215000000000126700088000000000000022200000000000027130400000000000000009999123100000010000000000000BRGGBRACNOR1169
012019041202GGBR4       010GERDAU      PN      N1   R$  000000000150500000000015400000000001492000000000151400000000015010000000001500000000000150116498000000000011009900000000016675870700000000000000009999123100000010000000000000BRGGBRACNPR8169
012019041202GNDI3       010INTERMEDICA ON      NM   R$  000000000336900000000033760000000003282000000000334000000000033280000000003306000000000332804006000000000001177300000000003932324200000000000000009999123100000010000000000000BRGNDIACNOR2101
012019041202GOAU3       010GERDAU MET  ON      N1   R$  000000000071600000000007240000000000713000000000071500000000007140000000000711000000000071400052000000000000011400000000000008158200000000000000009999123100000010000000000000BRGOAUACNOR1246
012019041202GOAU4       010GERDAU MET  PN      N1   R$  000000000071000000000007290000000000706000000000071700000000007120000000000712000000000071314063000000000009664000000000006933900000000000000000009999123100000010000000000000BRGOAUACNPR8247
012019041202GOGL34      010ALPHABET    DRN A        R$  000000001874500000000190750000000018745000000001876700000000190750000000018920000000001907500008000000000000014000000000000262750900000000000000009999123100000010000000000000BRGOGLBDR001100
012019041202GOGL35      010ALPHABET    DRN C        R$  000000001880000000000189990000000018800000000001884500000000189990000000000000000000001899900004000000000000003600000000000067843900000000000000009999123100000010000000000000BRGOGLBDR019100
012019041202GOLL4       010GOL         PN      N2   R$  000000000230000000000023830000000002281000000000233000000000023250000000002325000000000232911731000000000005301200000000012354400900000000000000009999123100000010000000000000BRGOLLACNPR4123
012019041202GPIV33      010GP INVEST   DR3          R$  000000000037000000000003990000000000370000000000038500000000003880000000000385000000000038900175000000000000802500000000000309025100000000000000009999123100000010000000000000BRGPIVBDR003104
012019041202GRND3       010GRENDENE    ON      NM   R$  000000000080300000000008190000000000802000000000081100000000008040000000000804000000000080702077000000000000511900000000000415421400000000000000009999123100000010000000000000BRGRNDACNOR3153
012019041202GSGI34      010GOLDMANSACHSDRN          R$  000000000810000000000081000000000008100000000000810000000000081000000000007879000000000000000001000000000000000100000000000000810000000000000000009999123100000010000000000000BRGSGIBDR008134
012019041202GSHP3       010GENERALSHOPPON      NM   R$  000000000012600000000001260000000000122000000000012200000000001220000000000122000000000012300195000000000000233800000000000028713300000000000000009999123100000010000000000000BRGSHPACNOR7101
012019041202GUAR3       010GUARARAPES  ON           R$  000000001381300000000139470000000013446000000001363100000000137000000000013700000000001376000582000000000000075200000000001025119800000000000000009999123100000010000000000000BRGUARACNOR4161
012019041202HAGA4       010HAGA S/A    PN           R$  000000000014700000000001500000000000147000000000014700000000001500000000000148000000000015000005000000000000002000000000000000294600000000000000009999123100000010000000000000BRHAGAACNPR4103
012019041202HAPV3       010HAPVIDA     ON      NM   R$  000000000286200000000028750000000002794000000000281500000000028070000000002800000000000280705263000000000001030100000000002900291700000000000000009999123100000010000000000000BRHAPVACNOR4101
012019041202HBOR3       010HELBOR      ON      NM   R$  000000000013100000000001320000000000129000000000013000000000001300000000000130000000000013100754000000000000946700000000000123664800000000000000009999123100000010000000000000BRHBORACNOR3113
012019041202HGTX3       010CIA HERING  ON  EJ  NM   R$  000000000281900000000028900000000002812000000000283900000000028450000000002835000000000284606034000000000001165800000000003310522200000000000000009999123100000010000000000000BRHGTXACNOR9146
012019041202HOME34      010HOME DEPOT  DRN          R$  000000003870000000000395820000000038700000000003936100000000395820000000000000000000000000000002000000000000000400000000000015744600000000000000009999123100000010000000000000BRHOMEBDR002128
012019041202HYPE3       010HYPERA      ON  EJ  NM   R$  000000000249400000000025160000000002469000000000250300000000025160000000002510000000000251608162000000000002670100000000006684597000000000000000009999123100000010000000000000BRHYPEACNOR0117
012019041202IDNT3       010IDEIASNET   ON           R$  000000000027500000000002900000000000268000000000027800000000002860000000000274000000000028600106000000000000069900000000000019440300000000000000009999123100000010000000000000BRIDNTACNOR5113
012019041202IDVL4       010INDUSVAL    PN      N2   R$  000000000038800000000004190000000000360000000000038400000000003880000000000386000000000038800158000000000000064300000000000024707700000000000000009999123100000010000000000000BRIDVLACNPR2128
012019041202IGTA3       010IGUATEMI    ON      NM   R$  000000000368200000000037250000000003613000000000365100000000036210000000003621000000000362406343000000000001225000000000004473164700000000000000009999123100000010000000000000BRIGTAACNOR5121
012019041202IRBR3       010IRBBRASIL REON      NM   R$  000000000939300000000095500000000009284000000000943400000000095500000000009480000000000955005028000000000001032600000000009742362900000000000000009999123100000010000000000000BRIRBRACNOR4104
012019041202ITEC3       010ITAUTEC     ON           R$  000000000480000000000048000000000004800000000000480000000000048000000000000900000000000600000002000000000000000300000000000001440000000000000000009999123100000010000000000000BRITECACNOR6141
012019041202ITLC34      010INTEL       DRN          R$  000000002170300000000217030000000021703000000002170300000000217030000000000000000000000000000001000000000000000100000000000002170300000000000000009999123100000010000000000000BRITLCBDR005133
012019041202ITSA3       010ITAUSA      ON      N1   R$  000000000134500000000013750000000001326000000000135100000000013300000000001330000000000135600238000000000000050500000000000068264500000000000000009999123100000010000000000000BRITSAACNOR0391
012019041202ITSA4       010ITAUSA      PN      N1   R$  000000000115500000000011870000000001144000000000116000000000011550000000001154000000000115529313000000000018701000000000021703529100000000000000009999123100000010000000000000BRITSAACNPR7391
012019041202ITUB3       010ITAUUNIBANCOON      N1   R$  000000000289100000000029340000000002833000000000287400000000028640000000002863000000000286400926000000000000271000000000000778987100000000000000009999123100000010000000000000BRITUBACNOR4252
012019041202ITUB4       010ITAUUNIBANCOPN      N1   R$  000000000330000000000033820000000003265000000000331000000000032950000000003290000000000329660270000000000029457500000000097530104700000000000000009999123100000010000000000000BRITUBACNPR1252
012019041202JBSS3       010JBS         ON      NM   R$  000000000167200000000017770000000001661000000000172800000000017640000000001755000000000176427840000000000015241500000000026351650900000000000000009999123100000010000000000000BRJBSSACNOR8113
012019041202JFEN3       010JOAO FORTES ON           R$  000000000035100000000003510000000000349000000000035000000000003490000000000349000000000035000004000000000000000900000000000000315300000000000000009999123100000010000000000000BRJFENACNOR0057
012019041202JHSF3       010JHSF PART   ON  ED  NM   R$  000000000025700000000002580000000000245000000000025100000000002490000000000249000000000025100691000000000001026900000000000257915400000000000000009999123100000010000000000000BRJHSFACNOR2114
012019041202JNJB34      010JOHNSON     DRN          R$  000000005283300000000528330000000052833000000005283300000000528330000000000000000000000000000001000000000000000400000000000021133200000000000000009999123100000010000000000000BRJNJBBDR002129
012019041202JPMC34      010JPMORGAN    DRN ED       R$  000000002130000000000214040000000021300000000002139600000000214040000000000000000000000000000003000000000000002700000000000057770000000000000000009999123100000010000000000000BRJPMCBDR009129
012019041202JPSA3       010JEREISSATI  ON           R$  000000000235000000000023870000000002285000000000232500000000023350000000002308000000000233500202000000000000068400000000000159071700000000000000009999123100000010000000000000BRJPSAACNOR6101
012019041202JSLG3       010JSL         ON      NM   R$  000000000114400000000011650000000001110000000000113000000000011250000000001125000000000112900702000000000000284700000000000321969400000000000000009999123100000010000000000000BRJSLGACNOR2112
012019041202KEPL3       010KEPLER WEBERON           R$  000000000179900000000018060000000001780000000000178800000000017800000000001780000000000179700225000000000000067300000000000120385900000000000000009999123100000010000000000000BRKEPLACNOR1046
012019041202KHCB34      010KRAFT HEINZ DRN          R$  000000001291700000000129170000000012917000000001291700000000129170000000011300000000001288000001000000000000000100000000000001291700000000000000009999123100000010000000000000BRKHCBBDR007115
012019041202KLBN3       010KLABIN S/A  ON      N2   R$  000000000047900000000004860000000000455000000000046100000000004550000000000455000000000046100784000000000000159000000000000073329200000000000000009999123100000010000000000000BRKLBNACNOR2151
012019041202KLBN4       010KLABIN S/A  PN      N2   R$  000000000029300000000002960000000000290000000000029100000000002910000000000291000000000029200976000000000000749900000000000218548200000000000000009999123100000010000000000000BRKLBNACNPR9151
012019041202KLBN11      010KLABIN S/A  UNT     N2   R$  000000000165800000000016740000000001608000000000162400000000016330000000001626000000000163312271000000000004343400000000007055415800000000000000009999123100000010000000000000BRKLBNCDAM18123
012019041202KROT3       010KROTON      ON  ED  NM   R$  000000000103900000000010670000000001029000000000104600000000010320000000001031000000000103220564000000000007543700000000007892095200000000000000009999123100000010000000000000BRKROTACNOR9131
012019041202LAME3       010LOJAS AMERICON      N1   R$  000000000124800000000012510000000001218000000000123500000000012340000000001233000000000123502940000000000000725700000000000896317900000000000000009999123100000010000000000000BRLAMEACNOR9200
012019041202LAME4       010LOJAS AMERICPN      N1   R$  000000000153800000000015540000000001491000000000152900000000015250000000001524000000000152523909000000000011210900000000017146087000000000000000009999123100000010000000000000BRLAMEACNPR6200
012019041202LCAM3       010LOCAMERICA  ON      NM   R$  000000000372000000000037660000000003657000000000367100000000036600000000003657000000000366001673000000000000837100000000003073491200000000000000009999123100000010000000000000BRLCAMACNOR3127
012019041202LEVE3       010METAL LEVE  ON      NM   R$  000000000236400000000023640000000002310000000000233000000000023150000000002315000000000231801334000000000000241800000000000563579000000000000000009999123100000010000000000000BRLEVEACNOR2184
012019041202LIGT3       010LIGHT S/A   ON      NM   R$  000000000201600000000020360000000001930000000000196700000000019540000000001953000000000195406451000000000002730800000000005372175900000000000000009999123100000010000000000000BRLIGTACNOR2119
012019041202LINX3       010LINX        ON      NM   R$  000000000368000000000039150000000003680000000000380000000000037830000000003766000000000378706268000000000002509900000000009539035200000000000000009999123100000010000000000000BRLINXACNOR0116
012019041202LIQO3       010LIQ         ON      NM   R$  000000000009100000000000930000000000089000000000009000000000000910000000000090000000000009100345000000000000635800000000000057568400000000000000009999123100000010000000000000BRLIQOACNOR2100
012019041202LLIS3       010LE LIS BLANCON      NM   R$  000000000298400000000029840000000002891000000000290200000000028910000000002882000000000289100015000000000000003400000000000009867100000000000000009999123100000010000000000000BRLLISACNOR4112
012019041202LOGG3       010LOG COM PROPON      NM   R$  000000000180400000000018090000000001735000000000176700000000017350000000001735000000000175401621000000000000345900000000000611413500000000000000009999123100000010000000000000BRLOGGACNOR7101
012019041202LOGN3       010LOG-IN      ON      NM   R$  000000000088000000000008850000000000854000000000087000000000008770000000000870000000000087700243000000000000143300000000000124807200000000000000009999123100000010000000000000BRLOGNACNOR3104
012019041202LPSB3       010LOPES BRASILON      NM   R$  000000000047400000000004740000000000455000000000046400000000004550000000000455000000000046000258000000000000093000000000000043152500000000000000009999123100000010000000000000BRLPSBACNOR0111
012019041202LREN3       010LOJAS RENNERON      NM   R$  000000000416200000000041940000000004060000000000413700000000041560000000004148000000000415615882000000000005073300000000020991572100000000000000009999123100000010000000000000BRLRENACNOR1195
012019041202MCDC34      010MCDONALDS   DRN          R$  000000001859300000000185930000000018593000000001859300000000185930000000000000000000000000000001000000000000000400000000000007437200000000000000009999123100000010000000000000BRMCDCBDR000134
012019041202MDIA3       010M.DIASBRANCOON      NM   R$  000000000412500000000041860000000004063000000000412400000000041100000000004106000000000411002877000000000000398400000000001643104300000000000000009999123100000010000000000000BRMDIAACNOR7117
012019041202MEAL3       010IMC S/A     ON      NM   R$  000000000068100000000006830000000000668000000000067700000000006790000000000679000000000068001926000000000000625700000000000423994200000000000000009999123100000010000000000000BRMEALACNOR9104
012019041202METB34      010METLIFE INC DRN          R$  000000001775000000000177500000000017750000000001775000000000177500000000000000000000001789900001000000000000000100000000000001775000000000000000009999123100000010000000000000BRMETBBDR004115
012019041202MGEL4       010MANGELS INDLPN           R$  000000000063300000000006850000000000633000000000068100000000006850000000000633000000000068300004000000000000001300000000000000885300000000000000009999123100000010000000000000BRMGELACNPR3147
012019041202MGLU3       010MAGAZ LUIZA ON      NM   R$  000000001640800000000168660000000016230000000001655800000000164830000000016475000000001652904943000000000000833400000000013799618000000000000000009999123100000010000000000000BRMGLUACNOR2111
012019041202MILS3       010MILLS       ON      NM   R$  000000000046600000000004660000000000438000000000045000000000004400000000000440000000000044101050000000000000510500000000000229987500000000000000009999123100000010000000000000BRMILSACNOR2112
012019041202MNPR3       010MINUPAR     ON           R$  000000000019400000000001950000000000194000000000019400000000001950000000000185000000000019500004000000000000000400000000000000077800000000000000009999123100000010000000000000BRMNPRACNOR5122
012019041202MOVI3       010MOVIDA      ON      NM   R$  000000000108000000000010970000000001032000000000106700000000010630000000001063000000000108604157000000000001203100000000001284675900000000000000009999123100000010000000000000BRMOVIACNOR0107
012019041202MPLU3       010MULTIPLUS   ON           R$  000000000268400000000026880000000002684000000000268400000000026850000000002684000000000268500101000000000000033600000000000090196600000000000000009999123100000010000000000000BRMPLUACNOR3131
012019041202MRFG3       010MARFRIG     ON      NM   R$  000000000066700000000006770000000000650000000000066200000000006510000000000651000000000065311299000000000003701900000000002453984100000000000000009999123100000010000000000000BRMRFGACNOR0108
012019041202MRVE3       010MRV         ON      NM   R$  000000000135000000000013750000000001330000000000135000000000013400000000001340000000000134710267000000000004198900000000005671710100000000000000009999123100000010000000000000BRMRVEACNOR2117
012019041202MSFT34      010MICROSOFT   DRN          R$  000000004667000000000469610000000046670000000004691900000000469610000000000000000000000000000002000000000000000700000000000032843600000000000000009999123100000010000000000000BRMSFTBDR005133
012019041202MTIG4       010METAL IGUACUPN           R$  000000000800000000000080000000000008000000000000800000000000080000000000007000000000000820000002000000000000000200000000000001600000000000000000009999123100000010000000000000BRMTIGACNPR7085
012019041202MTSA4       010METISA      PN           R$  000000000162000000000016350000000001590000000000160500000000015900000000001590000000000159200026000000000000005800000000000009311400000000000000009999123100000010000000000000BRMTSAACNPR9053
012019041202MULT3       010MULTIPLAN   ON      N2   R$  000000000222100000000022370000000002176000000000220800000000021800000000002179000000000218017675000000000004368000000000009647558700000000000000009999123100000010000000000000BRMULTACNOR5124
012019041202MYPK3       010IOCHP-MAXIONON      NM   R$  000000000203200000000020480000000001979000000000200900000000020240000000002019000000000202402855000000000000661100000000001328725000000000000000009999123100000010000000000000BRMYPKACNOR7146
012019041202NATU3       010NATURA      ON      NM   R$  000000000452400000000046300000000004435000000000450700000000046100000000004586000000000461007828000000000002904000000000013089052900000000000000009999123100000010000000000000BRNATUACNOR6133
012019041202NFLX34      010NETFLIX     DRN          R$  000000013632600000001363260000000136326000000013632600000001363260000000000000000000016000000001000000000000000300000000000040897800000000000000009999123100000010000000000000BRNFLXBDR000101
012019041202ODPV3       010ODONTOPREV  ON  ED  NM   R$  000000000168800000000017260000000001671000000000170300000000016720000000001672000000000167406854000000000003044600000000005185950500000000000000009999123100000010000000000000BRODPVACNOR4167
012019041202OFSA3       010OUROFINO S/AON      NM   R$  000000000309900000000030990000000003039000000000305800000000030750000000003041000000000307500018000000000000002400000000000007339600000000000000009999123100000010000000000000BROFSAACNOR7108
012019041202OMGE3       010OMEGA GER   ON      NM   R$  000000000201300000000020650000000002000000000000201500000000020000000000001975000000000200001271000000000000270800000000000545916600000000000000009999123100000010000000000000BROMGEACNOR0101
012019041202PARD3       010IHPARDINI   ON      NM   R$  000000000217000000000022150000000002101000000000215100000000021320000000002114000000000213700947000000000000179600000000000386488200000000000000009999123100000010000000000000BRPARDACNOR1108
012019041202PCAR4       010P.ACUCAR-CBDPN      N1   R$  000000000905700000000091120000000008995000000000906000000000091090000000009100000000000910905475000000000000846100000000007665922300000000000000009999123100000010000000000000BRPCARACNPR0154
012019041202PEAB3       010PAR AL BAHIAON           R$  000000000355000000000036000000000003550000000000358700000000036000000000003408000000000364900003000000000000000400000000000001435000000000000000009999123100000010000000000000BRPEABACNOR3121
012019041202PEPB34      010PEPSICO INC DRN          R$  000000004745700000000474570000000047457000000004745700000000474570000000000000000000000000000001000000000000000400000000000018982800000000000000009999123100000010000000000000BRPEPBBDR005126
012019041202PETR3       010PETROBRAS   ON      N2   R$  000000000302900000000030520000000002901000000000296800000000029130000000002913000000000291435715000000000023981400000000071192255500000000000000009999123100000010000000000000BRPETRACNOR9187
012019041202PETR4       010PETROBRAS   PN      N2   R$  000000000264700000000026970000000002557000000000262700000000025830000000002582000000000258386616000000000227307600000000597296597200000000000000009999123100000010000000000000BRPETRACNPR6191
012019041202PFIZ34      010PFIZER      DRN          R$  000000001631500000000163150000000016225000000001627000000000162250000000000000000000000000000002000000000000001800000000000029286000000000000000009999123100000010000000000000BRPFIZBDR006134
012019041202PFRM3       010PROFARMA    ON      NM   R$  000000000042700000000004270000000000403000000000041400000000004130000000000413000000000041400490000000000000423700000000000175646800000000000000009999123100000010000000000000BRPFRMACNOR1112
012019041202PINE4       010PINE        PN      N2   R$  000000000022200000000002270000000000222000000000022300000000002250000000000225000000000022700030000000000000021100000000000004722800000000000000009999123100000010000000000000BRPINEACNPR8143
012019041202PLAS3       010PLASCAR PARTON           R$  000000000050700000000005350000000000500000000000050400000000005000000000000497000000000050000017000000000000005700000000000002873900000000000000009999123100000010000000000000BRPLASACNOR2106
012019041202PMAM3       010PARANAPANEMAON      NM   R$  000000000014000000000001410000000000138000000000013900000000001380000000000138000000000013900701000000000001158700000000000161550500000000000000009999123100000010000000000000BRPMAMACNOR3036
012019041202PNVL4       010DIMED       PN           R$  000000002700000000000270000000000027000000000002700000000000270000000000023000000000002800000001000000000000000100000000000002700000000000000000009999123100000010000000000000BRPNVLACNPR6192
012019041202POMO3       010MARCOPOLO   ON      N2   R$  000000000032900000000003360000000000319000000000032700000000003350000000000325000000000033500105000000000000066800000000000021859400000000000000009999123100000010000000000000BRPOMOACNOR0083
012019041202POMO4       010MARCOPOLO   PN      N2   R$  000000000036600000000003750000000000361000000000036600000000003640000000000364000000000036502674000000000002466200000000000904873700000000000000009999123100000010000000000000BRPOMOACNPR7083
012019041202POSI3       010POSITIVO TECON      NM   R$  000000000022400000000002260000000000223000000000022400000000002250000000000224000000000022500278000000000000061300000000000013750900000000000000009999123100000010000000000000BRPOSIACNOR9111
012019041202PPLA11      010PPLA        UNT          R$  000000000012800000000001480000000000122000000000013100000000001230000000000122000000000012300582000000000000493200000000000065068400000000000000009999123100000010000000000000BRPPLAUNT007100
012019041202PRIO3       010PETRORIO    ON      NM   R$  000000000179000000000018500000000001781000000000180900000000018200000000001807000000000182002478000000000000903100000000001634313100000000000000009999123100000010000000000000BRPRIOACNOR1102
012019041202PSSA3       010PORTO SEGUROON      NM   R$  000000000534000000000054780000000005280000000000538600000000053620000000005362000000000536902564000000000000354700000000001910545200000000000000009999123100000010000000000000BRPSSAACNOR7138
012019041202PTBL3       010PORTOBELLO  ON  EDJ NM   R$  000000000047200000000004900000000000470000000000047800000000004720000000000472000000000047400596000000000000287900000000000137802400000000000000009999123100000010000000000000BRPTBLACNOR8124
012019041202PTNT4       010PETTENATI   PN           R$  000000000029300000000002980000000000285000000000029100000000002860000000000286000000000030000008000000000000000800000000000000233200000000000000009999123100000010000000000000BRPTNTACNPR3042
012019041202QGEP3       010QGEP PART   ON      NM   R$  000000000146500000000014890000000001453000000000147100000000014600000000001460000000000146603061000000000000675600000000000994163600000000000000009999123100000010000000000000BRQGEPACNOR8108
012019041202QUAL3       010QUALICORP   ON      NM   R$  000000000157000000000016000000000001560000000000157600000000015640000000001564000000000156509493000000000001765300000000002782751100000000000000009999123100000010000000000000BRQUALACNOR6109
012019041202RADL3       010RAIADROGASILON      NM   R$  000000000652100000000066500000000006497000000000658900000000066000000000006572000000000661005072000000000000720300000000004746258100000000000000009999123100000010000000000000BRRADLACNOR0130
012019041202RAIL3       010RUMO S.A.   ON      NM   R$  000000000179000000000018420000000001771000000000182000000000018190000000001815000000000181925124000000000010641600000000019373962600000000000000009999123100000010000000000000BRRAILACNOR9100
012019041202RANI3       010CELUL IRANI ON           R$  000000000027300000000002730000000000273000000000027300000000002730000000000271000000000027600002000000000000049400000000000013486200000000000000009999123100000010000000000000BRRANIACNOR5050
012019041202RAPT3       010RANDON PART ON      N1   R$  000000000072300000000007250000000000723000000000072400000000007230000000000723000000000074400008000000000000000900000000000000651800000000000000009999123100000010000000000000BRRAPTACNOR7149
012019041202RAPT4       010RANDON PART PN      N1   R$  000000000091800000000009340000000000909000000000091700000000009090000000000908000000000090905377000000000001582600000000001452773600000000000000009999123100000010000000000000BRRAPTACNPR4149
012019041202RCSL3       010RECRUSUL    ON           R$  000000000020100000000002040000000000199000000000019900000000002000000000000199000000000020400011000000000000002000000000000000399700000000000000009999123100000010000000000000BRRCSLACNOR4130
012019041202RCSL4       010RECRUSUL    PN           R$  000000000014900000000001490000000000143000000000014500000000001460000000000145000000000014600021000000000000003800000000000000552000000000000000009999123100000010000000000000BRRCSLACNPR1130
012019041202RDNI3       010RNI         ON      NM   R$  000000000056200000000005850000000000556000000000056400000000005560000000000535000000000055600029000000000000015200000000000008581500000000000000009999123100000010000000000000BRRDNIACNOR9112
012019041202REDE3       010REDE ENERGIAON           R$  000000000074000000000008000000000000720000000000074900000000007500000000000750000000000080000047000000000000018900000000000014165200000000000000009999123100000010000000000000BRREDEACNOR7109
012019041202RENT3       010LOCALIZA    ON      NM   R$  000000000313700000000032240000000003107000000000319400000000031750000000003170000000000317621305000000000011196300000000035765552400000000000000009999123100000010000000000000BRRENTACNOR4171
012019041202RLOG3       010COSAN LOG   ON      NM   R$  000000000148400000000015050000000001458000000000148700000000014940000000001488000000000149401554000000000000339900000000000505631200000000000000009999123100000010000000000000BRRLOGACNOR4106
012019041202RNEW3       010RENOVA      ON      N2   R$  000000000107200000000011000000000001000000000000102300000000010000000000001000000000000102300055000000000000008700000000000008906600000000000000009999123100000010000000000000BRRNEWACNOR8106
012019041202RNEW4       010RENOVA      PN      N2   R$  000000000103100000000010540000000000992000000000102100000000010150000000001000000000000101500099000000000000024700000000000025242600000000000000009999123100000010000000000000BRRNEWACNPR5106
012019041202RNEW11      010RENOVA      UNT     N2   R$  000000000319900000000031990000000003000000000000304400000000030390000000003039000000000304000117000000000000024800000000000075500500000000000000009999123100000010000000000000BRRNEWCDAM15106
012019041202ROMI3       010INDS ROMI   ON      NM   R$  000000000096400000000009900000000000937000000000096300000000009430000000000942000000000094300538000000000000214600000000000206796800000000000000009999123100000010000000000000BRROMIACNOR8169
012019041202RPAD5       010ALFA HOLDINGPNA          R$  000000000066000000000006600000000000660000000000066000000000006600000000000660000000000070000001000000000000000100000000000000066000000000000000009999123100000010000000000000BRRPADACNPA4208
012019041202RSID3       010ROSSI RESID ON      NM   R$  000000000043400000000004350000000000425000000000042700000000004250000000000423000000000042500105000000000000033700000000000014420300000000000000009999123100000010000000000000BRRSIDACNOR8119
012019041202SANB3       010SANTANDER BRON  EJ       R$  000000000228000000000022920000000002221000000000226400000000022230000000002211000000000225000030000000000000004000000000000009056400000000000000009999123100000010000000000000BRSANBACNOR8148
012019041202SANB4       010SANTANDER BRPN  EJ       R$  000000000220100000000022550000000002201000000000224100000000022290000000002214000000000223800041000000000000006400000000000014346200000000000000009999123100000010000000000000BRSANBACNPR5148
012019041202SANB11      010SANTANDER BRUNT EJ       R$  000000000443000000000045540000000004419000000000448400000000044690000000004459000000000446910221000000000001835800000000008231774000000000000000009999123100000010000000000000BRSANBCDAM13141
012019041202SAPR3       010SANEPAR     ON      N2   R$  000000000203700000000020480000000001974000000000201400000000020200000000001951000000000203800083000000000000012700000000000025581800000000000000009999123100000010000000000000BRSAPRACNOR9145
012019041202SAPR4       010SANEPAR     PN      N2   R$  000000000142200000000014500000000001422000000000143400000000014280000000001428000000000143301947000000000000412400000000000591518800000000000000009999123100000010000000000000BRSAPRACNPR6145
012019041202SAPR11      010SANEPAR     UNT     N2   R$  000000000777400000000078340000000007684000000000774900000000077350000000007670000000000773502386000000000000376200000000002915423600000000000000009999123100000010000000000000BRSAPRCDAM13104
012019041202SBSP3       010SABESP      ON      NM   R$  000000000398000000000039930000000003843000000000389000000000038850000000003874000000000388510502000000000002604900000000010135384800000000000000009999123100000010000000000000BRSBSPACNOR5155
012019041202SCAR3       010SAO CARLOS  ON      NM   R$  000000000333300000000033530000000003320000000000332700000000033210000000003317000000000339800009000000000000002100000000000006986900000000000000009999123100000010000000000000BRSCARACNOR7125
012019041202SEDU3       010SOMOS EDUCA ON      NM   R$  000000000226400000000022650000000002249000000000226400000000022650000000002255000000000226500238000000000000173900000000000393817400000000000000009999123100000010000000000000BRSEDUACNOR1100
012019041202SEER3       010SER EDUCA   ON      NM   R$  000000000207500000000021250000000002048000000000209800000000020850000000002085000000000208705301000000000001125300000000002361826900000000000000009999123100000010000000000000BRSEERACNOR5111
012019041202SGPS3       010SPRINGS     ON      NM   R$  000000000095000000000009750000000000945000000000096100000000009750000000000975000000000097700356000000000000234800000000000225805800000000000000009999123100000010000000000000BRSGPSACNOR4104
012019041202SHOW3       010TIME FOR FUNON      NM   R$  000000000062100000000006420000000000620000000000062400000000006240000000000624000000000064200243000000000000081000000000000050618800000000000000009999123100000010000000000000BRSHOWACNOR7104
012019041202SHUL4       010SCHULZ      PN  ED       R$  000000000074800000000007480000000000715000000000072400000000007440000000000740000000000074400150000000000000043500000000000031528000000000000000009999123100000010000000000000BRSHULACNPR4134
012019041202SLCE3       010SLC AGRICOLAON      NM   R$  000000000427000000000043290000000004192000000000426100000000042660000000004266000000000428002862000000000000853600000000003637972300000000000000009999123100000010000000000000BRSLCEACNOR2112
012019041202SMLS3       010SMILES      ON      NM   R$  000000000471000000000048000000000004673000000000472700000000048000000000004757000000000480003513000000000000726800000000003436092700000000000000009999123100000010000000000000BRSMLSACNOR1106
012019041202SMTO3       010SAO MARTINHOON      NM   R$  000000000194500000000019500000000001906000000000193900000000019060000000001906000000000192303027000000000002871600000000005569817300000000000000009999123100000010000000000000BRSMTOACNOR3114
012019041202SOND6       010SONDOTECNICAPNB          R$  000000000250000000000025000000000002500000000000250000000000025000000000002500000000000285000002000000000000000300000000000000750000000000000000009999123100000010000000000000BRSONDACNPB6159
012019041202SPRI5       010SPRINGER    PNA          R$  000000000070000000000007000000000000680000000000068800000000006800000000000680000000000075000006000000000000000900000000000000620000000000000000009999123100000010000000000000BRSPRIACNPA5149
012019041202SQIA3       010SINQIA      ON      NM   R$  000000000370700000000037070000000003601000000000363500000000036500000000003620000000000366600337000000000000044200000000000160677300000000000000009999123100000010000000000000BRSQIAACNOR6100
012019041202SSBR3       010SIERRABRASILON      NM   R$  000000000291000000000029400000000002895000000000291900000000029400000000002913000000000294000027000000000000004600000000000013428600000000000000009999123100000010000000000000BRSSBRACNOR1108
012019041202STBP3       010SANTOS BRP  ON      NM   R$  000000000036100000000003620000000000353000000000035500000000003530000000000353000000000035502190000000000002115500000000000753089500000000000000009999123100000010000000000000BRSTBPACNOR3115
012019041202SULA11      010SUL AMERICA UNT     N2   R$  000000000316900000000032140000000003123000000000318800000000032060000000003181000000000320604386000000000000751500000000002396061400000000000000009999123100000010000000000000BRSULACDAM12136
012019041202SUZB3       010SUZANO S.A. ON      NM   R$  000000000435000000000043670000000004188000000000424500000000042490000000004246000000000424919704000000000005261600000000022337113300000000000000009999123100000010000000000000BRSUZBACNOR0123
012019041202TAEE3       010TAESA       ON      N2   R$  000000000092000000000009290000000000907000000000091400000000009070000000000906000000000092300048000000000000006900000000000006308100000000000000009999123100000010000000000000BRTAEEACNOR9124
012019041202TAEE4       010TAESA       PN      N2   R$  000000000080600000000008180000000000785000000000079500000000007850000000000785000000000079200061000000000000014900000000000011855500000000000000009999123100000010000000000000BRTAEEACNPR6124
012019041202TAEE11      010TAESA       UNT     N2   R$  000000000252400000000025560000000002475000000000250500000000024870000000002487000000000248808872000000000001272700000000003188217900000000000000009999123100000010000000000000BRTAEECDAM10124
012019041202TCSA3       010TECNISA     ON      NM   R$  000000000012900000000001300000000000127000000000012800000000001270000000000127000000000012801004000000000001548800000000000198259800000000000000009999123100000010000000000000BRTCSAACNOR3111
012019041202TECN3       010TECHNOS     ON      NM   R$  000000000025400000000002590000000000247000000000025100000000002590000000000259000000000026000148000000000000114900000000000028942700000000000000009999123100000010000000000000BRTECNACNOR6106
012019041202TELB4       010TELEBRAS    PN           R$  000000000270200000000027800000000002701000000000273300000000027660000000002766000000000277000008000000000000001400000000000003827300000000000000009999123100000010000000000000BRTELBACNPR9138
012019041202TEND3       010TENDA       ON      NM   R$  000000000162900000000016830000000001628000000000166800000000016600000000001660000000000166104070000000000001371100000000002288085900000000000000009999123100000010000000000000BRTENDACNOR4103
012019041202TESA3       010TERRA SANTA ON      NM   R$  000000000141100000000014270000000001400000000000140300000000014160000000001397000000000142000014000000000000005300000000000007436700000000000000009999123100000010000000000000BRTESAACNOR9100
012019041202TEXA34      010TEXAS INC   DRN          R$  000000004531000000000453100000000045310000000004531000000000453100000000000000000000000000000001000000000000000300000000000013593000000000000000009999123100000010000000000000BRTEXABDR003114
012019041202TGMA3       010TEGMA       ON      NM   R$  000000000265900000000026850000000002609000000000263200000000026170000000002617000000000264101149000000000000194600000000000512369100000000000000009999123100000010000000000000BRTGMAACNOR7130
012019041202TIET3       010AES TIETE E ON      N2   R$  000000000021900000000002200000000000215000000000021700000000002180000000000218000000000022000266000000000000066500000000000014456000000000000000009999123100000010000000000000BRTIETACNOR0116
012019041202TIET4       010AES TIETE E PN      N2   R$  000000000021800000000002180000000000211000000000021400000000002140000000000214000000000021600405000000000000151400000000000032550200000000000000009999123100000010000000000000BRTIETACNPR7116
012019041202TIET11      010AES TIETE E UNT     N2   R$  000000000108100000000010900000000001058000000000107600000000010720000000001072000000000107306874000000000001713500000000001844527900000000000000009999123100000010000000000000BRTIETCDAM15116
012019041202TIMP3       010TIM PART S/AON      NM   R$  000000000122800000000012430000000001196000000000121000000000012080000000001194000000000120807219000000000002832000000000003427728800000000000000009999123100000010000000000000BRTIMPACNOR1111
012019041202TOTS3       010TOTVS       ON      NM   R$  000000000419900000000042780000000004157000000000421700000000042300000000004205000000000423004769000000000000840200000000003543801500000000000000009999123100000010000000000000BRTOTSACNOR8131
012019041202TOYB4       010TECTOY      PN           R$  000000000018100000000001930000000000181000000000018800000000001860000000000186000000000019000107000000000000053000000000000009990600000000000000009999123100000010000000000000BRTOYBACNPR1113
012019041202TRIS3       010TRISUL      ON      NM   R$  000000000046700000000004750000000000460000000000046700000000004650000000000465000000000046800411000000000000207200000000000096825800000000000000009999123100000010000000000000BRTRISACNOR4111
012019041202TRPL3       010TRAN PAULISTON  EB  N1   R$  000000000232100000000023300000000002300000000000232200000000023300000000002265000000000233000008000000000000001100000000000002554500000000000000009999123100000010000000000000BRTRPLACNOR4171
012019041202TRPL4       010TRAN PAULISTPN  EB  N1   R$  000000000199500000000020290000000001986000000000200500000000019870000000001987000000000199504063000000000001128800000000002263446200000000000000009999123100000010000000000000BRTRPLACNPR1171
012019041202TRPN3       010TARPON INV  ON      NM   R$  000000000010800000000001080000000000105000000000010500000000001050000000000105000000000010600038000000000000052000000000000005509800000000000000009999123100000010000000000000BRTRPNACNOR0118
012019041202TUPY3       010TUPY        ON      NM   R$  000000000176600000000017910000000001750000000000177000000000017680000000001765000000000176902287000000000000526100000000000931391700000000000000009999123100000010000000000000BRTUPYACNOR1174
012019041202UCAS3       010UNICASA     ON      NM   R$  000000000027700000000002800000000000272000000000027500000000002750000000000273000000000027400060000000000000071200000000000019580100000000000000009999123100000010000000000000BRUCASACNOR1105
012019041202UGPA3       010ULTRAPAR    ON      NM   R$  000000000443100000000044950000000004374000000000442400000000044000000000004390000000000440013295000000000001982600000000008772760700000000000000009999123100000010000000000000BRUGPAACNOR8143
012019041202UNIP3       010UNIPAR      ON           R$  000000000384500000000039000000000003830000000000388000000000038770000000003840000000000389900052000000000000015000000000000058203700000000000000009999123100000010000000000000BRUNIPACNOR7189
012019041202UNIP6       010UNIPAR      PNB          R$  000000000384500000000038640000000003790000000000384000000000037910000000003790000000000379100855000000000000208800000000000801890000000000000000009999123100000010000000000000BRUNIPACNPB8189
012019041202USIM3       010USIMINAS    ON      N1   R$  000000000110100000000011300000000001100000000000111000000000011300000000001110000000000113000045000000000000008900000000000009887400000000000000009999123100000010000000000000BRUSIMACNOR3157
012019041202USIM5       010USIMINAS    PNA     N1   R$  000000000092000000000009560000000000914000000000093200000000009180000000000918000000000091916050000000000014276000000000013316195400000000000000009999123100000010000000000000BRUSIMACNPA6159
012019041202VALE3       010VALE        ON      NM   R$  000000000520900000000052720000000005131000000000520000000000051480000000005148000000000515044000000000000016905900000000087923135300000000000000009999123100000010000000000000BRVALEACNOR0197
012019041202VERZ34      010VERIZON     DRN ED       R$  000000002293700000000229370000000022937000000002293700000000229370000000000000000000002293700001000000000000000100000000000002293700000000000000009999123100000010000000000000BRVERZBDR008129
012019041202VISA34      010VISA INC    DRN          R$  000000006196500000000619650000000061965000000006196500000000619650000000000000000000000000000001000000000000000200000000000012393000000000000000009999123100000010000000000000BRVISABDR000125
012019041202VIVT3       010TELEF BRASILON  ED       R$  000000000417500000000042090000000004087000000000413300000000041580000000004077000000000415800406000000000000042800000000000176923400000000000000009999123100000010000000000000BRVIVTACNOR0145
012019041202VIVT4       010TELEF BRASILPN  ED       R$  000000000470400000000047540000000004644000000000467100000000046530000000004653000000000465407888000000000001620400000000007569103300000000000000009999123100000010000000000000BRVIVTACNPR7145
012019041202VLID3       010VALID       ON      NM   R$  000000000179400000000018260000000001776000000000179800000000017760000000001776000000000178401325000000000000226800000000000407862600000000000000009999123100000010000000000000BRVLIDACNOR5133
012019041202VULC3       010VULCABRAS   ON      NM   R$  000000000063700000000006410000000000624000000000063400000000006390000000000627000000000063901030000000000000458000000000000290731700000000000000009999123100000010000000000000BRVULCACNOR2149
012019041202VVAR3       010VIAVAREJO   ON      NM   R$  000000000042400000000004270000000000412000000000041900000000004160000000000416000000000041712540000000000010958200000000004592227000000000000000009999123100000010000000000000BRVVARACNOR1109
012019041202WALM34      010WAL MART    DRN          R$  000000000979400000000099280000000009794000000000982700000000099280000000000000000000000992800002000000000000000400000000000003931000000000000000009999123100000010000000000000BRWALMBDR005134
012019041202WEGE3       010WEG         ON      NM   R$  000000000181600000000018590000000001807000000000183200000000018240000000001822000000000182711352000000000002377400000000004357524000000000000000009999123100000010000000000000BRWEGEACNOR0191
012019041202WHRL3       010WHIRLPOOL   ON           R$  000000000045000000000004500000000000450000000000045000000000004500000000000429000000000046100001000000000000011100000000000004995000000000000000009999123100000010000000000000BRWHRLACNOR5121
012019041202WHRL4       010WHIRLPOOL   PN           R$  000000000047900000000004810000000000470000000000047600000000004810000000000481000000000048200010000000000000002800000000000001334400000000000000009999123100000010000000000000BRWHRLACNPR2121
012019041202WIZS3       010WIZ S.A.    ON      NM   R$  000000000085500000000008680000000000848000000000085800000000008580000000000855000000000085802304000000000000585800000000000502740400000000000000009999123100000010000000000000BRWIZSACNOR1103
012019041202WLMM4       010WLM IND COM PN           R$  000000000062000000000006300000000000620000000000062700000000006300000000000612000000000063000006000000000000001900000000000001191500000000000000009999123100000010000000000000BRWLMMACNPR3100
012019041202WSON33      010WILSON SONS DR3          R$  000000000417000000000044000000000004103000000000428600000000042950000000004080000000000429500040000000000000038100000000000163327100000000000000009999123100000010000000000000BRWSONBDR009111
012019041207TPIS3       010TRIUNFO PARTON      NM   R$  000000000016300000000001650000000000159000000000016100000000001650000000000162000000000016500256000000000000246200000000000039778100000000000000009999123100000010000000000000BRTPISACNOR8115
012019041207TXRX4       010TEX RENAUX  PN           R$  000000000022300000000002230000000000222000000000022200000000002220000000000222000000000022500004000000000000001400000000000000311500000000000000009999123100000010000000000000BRTXRXACNPR0142
012019041208BPHA3       010BR PHARMA   ON      NM   R$  000000000014500000000001500000000000142000000000014400000000001420000000000142000000000014400059000000000000076900000000000011095500000000000000009999123100000010000000000000BRBPHAACNOR6105
012019041208ETER3       010ETERNIT     ON      NM   R$  000000000020100000000002080000000000198000000000020200000000002020000000000202000000000020300099000000000000087300000000000017662800000000000000009999123100000010000000000000BRETERACNOR3231
012019041208FHER3       010FER HERINGERON      NM   R$  000000000021900000000002230000000000219000000000021900000000002200000000000219000000000022000077000000000000082700000000000018192700000000000000009999123100000010000000000000BRFHERACNOR5103
012019041208FRTA3       010POMIFRUTAS  ON      NM   R$  000000000009200000000000920000000000089000000000009000000000000910000000000091000000000009200012000000000000019500000000000001767400000000000000009999123100000010000000000000BRFRTAACNOR8102
012019041208GPCP3       010GPC PART    ON           R$  000000000130000000000013400000000001212000000000125200000000012220000000001222000000000128000030000000000000010900000000000013654500000000000000009999123100000010000000000000BRGPCPACNOR4108
012019041208HOOT4       010HOTEIS OTHONPN           R$  000000000019000000000001900000000000180000000000018100000000001810000000000180000000000019500006000000000000003400000000000000617000000000000000009999123100000010000000000000BRHOOTACNPR9015
012019041208IGBR3       010IGB S/A     ON           R$  000000000022800000000002280000000000221000000000022300000000002210000000000221000000000022400034000000000000019400000000000004326500000000000000009999123100000010000000000000BRIGBRACNOR7031
012019041208INEP3       010INEPAR      ON           R$  000000000128000000000012810000000001269000000000127700000000012700000000001250000000000126800014000000000000004400000000000005621000000000000000009999123100000010000000000000BRINEPACNOR1140
012019041208INEP4       010INEPAR      PN           R$  000000000133600000000013460000000001316000000000132900000000013460000000001315000000000134600032000000000000005700000000000007575500000000000000009999123100000010000000000000BRINEPACNPR8140
012019041208LUPA3       010LUPATECH    ON      NM   R$  000000000017800000000001780000000000172000000000017300000000001720000000000172000000000017500074000000000000102700000000000017785000000000000000009999123100000010000000000000BRLUPAACNOR8107
012019041208MMXM3       010MMX MINER   ON      NM   R$  000000000021000000000002100000000000208000000000020900000000002100000000000210000000000021100012000000000000005200000000000001091600000000000000009999123100000010000000000000BRMMXMACNOR2112
012019041208OIBR3       010OI          ON      N1   R$  000000000016400000000001720000000000158000000000016300000000001610000000000160000000000016119340000000000085943300000000014082502400000000000000009999123100000010000000000000BROIBRACNOR1108
012019041208OIBR4       010OI          PN      N1   R$  000000000016500000000001710000000000159000000000016500000000001610000000000161000000000016203211000000000006223900000000001029186900000000000000009999123100000010000000000000BROIBRACNPR8107
012019041208OSXB3       010OSX BRASIL  ON      NM   R$  000000000043000000000004300000000000430000000000043000000000004300000000000430000000000044000004000000000000004200000000000001806000000000000000009999123100000010000000000000BROSXBACNOR8109
012019041208PDGR3       010PDG REALT   ON      NM   R$  000000000065300000000006640000000000633000000000064500000000006640000000000637000000000066400290000000000000089900000000000057986300000000000000009999123100000010000000000000BRPDGRACNOR8114
012019041208RPMG3       010PET MANGUINHON           R$  000000000020600000000002140000000000206000000000021200000000002140000000000207000000000021400008000000000000002400000000000000510200000000000000009999123100000010000000000000BRRPMGACNOR9194
012019041208SLED3       010SARAIVA LIVRON      N2   R$  000000000018800000000001910000000000188000000000018900000000001900000000000182000000000019000010000000000000005200000000000000984800000000000000009999123100000010000000000000BRSLEDACNOR0155
012019041208SLED4       010SARAIVA LIVRPN      N2   R$  000000000019300000000001980000000000190000000000019100000000001900000000000190000000000019800038000000000000024800000000000004758800000000000000009999123100000010000000000000BRSLEDACNPR7154
012019041208SNSY5       010SANSUY      PNA          R$  000000000768800000000079000000000007688000000000779400000000079000000000006001000000000780000002000000000000000200000000000001558800000000000000009999123100000010000000000000BRSNSYACNPA5110
012019041208TCNO3       010TECNOSOLO   ON           R$  000000000014100000000001450000000000134000000000013800000000001370000000000134000000000013700008000000000000005300000000000000732400000000000000009999123100000010000000000000BRTCNOACNOR5159
012019041208TCNO4       010TECNOSOLO   PN           R$  000000000014700000000001470000000000137000000000014100000000001370000000000137000000000014000013000000000000005900000000000000833600000000000000009999123100000010000000000000BRTCNOACNPR2159
012019041208VIVR3       010VIVER       ON      NM   R$  000000000003300000000000350000000000032000000000003300000000000330000000000033000000000003401045000000000013888400000000000469293100000000000000009999123100000010000000000000BRVIVRACNOR4106
012019041210ABCB10      010ABC BRASIL  PN  REC N2   R$  000000000189000000000018900000000001849000000000186200000000018490000000001501000000000188500004000000000000000400000000000000744900000000000000009999123100000010000000000000BRABCBR15PR9130
012019041210IDVL1       010INDUSVAL    DIR ORD N2   R$  000000000000300000000000060000000000003000000000000400000000000050000000000004000000000000500241000000000000841500000000000004000000000000000000009999123100000010000000000000BRIDVLD01OR0127
012019041212ABCP11      010FII ABC IMOBCI           R$  000000001083800000000109000000000010650000000001083200000000107100000000010653000000001071000552000000000000003018000000000032690988000000000000009999123100000010000000000000BRABCPCTF000282
012019041212AEFI11      010FII AESAPAR CI           R$  000000001679900000000170010000000016511000000001682600000000170010000000016715000000001700100205000000000000002860000000000048123301000000000000009999123100000010000000000000BRAEFICTF002188
012019041212AGCX11      010FII AG CAIXACI           R$  000000012150000000001215000000000120000000000012068700000001208000000000120200000000012099600060000000000000000216000000000026068407000000000000009999123100000010000000000000BRAGCXCTF003177
012019041212ALMI11      010FII TORRE ALCI           R$  000000014100100000001419940000000141000000000014163800000001419940000000141500000000014199400011000000000000000014000000000001982943000000000000009999123100000010000000000000BRALMICTF003250
012019041212ALZR11      010FII ALIANZA CI  ES       R$  000000000969400000000097250000000009621000000000967100000000096600000000009660000000000967000245000000000000003572000000000034545002000000000000009999123100000010000000000000BRALZRCTF006115
012019041212BBFI11B     010FII BB PROGRCI      MB   R$  000000023860100000002386010000000238200000000023841700000002385000000000238300000000023850000031000000000000000105000000000025033838000000000000009999123100000010000000000000BRBBFICTF006265
012019041212BBPO11      010FII BB PRGIICI           R$  000000001390000000000139000000000013875000000001389600000000138970000000013897000000001389901657000000000000021117000000000293456669000000000000009999123100000010000000000000BRBBPOCTF003177
012019041212BBRC11      010FII BB CORP CI           R$  000000001339900000000134490000000013302000000001339300000000134490000000013400000000001344900043000000000000000430000000000005759252000000000000009999123100000010000000000000BRBBRCCTF004191
012019041212BBVJ11      010FII C JARDIMCI           R$  000000000572100000000057500000000005711000000000571400000000057120000000005712000000000579000014000000000000000730000000000004171828000000000000009999123100000010000000000000BRBBVJCTF001192
012019041212BCFF11      010FII BC FFII CI  ER       R$  000000000840900000000084090000000008375000000000839300000000083970000000008396000000000839701541000000000000015658000000000131421157000000000000009999123100000010000000000000BRBCFFCTF000212
012019041212BCIA11      010FII BCIA    CI           R$  000000001099500000000110500000000010995000000001104900000000110500000000011046000000001105000018000000000000000162000000000001790040000000000000009999123100000010000000000000BRBCIACTF005147
012019041212BCRI11      010FII BEES CRICI           R$  000000001165400000000116670000000011600000000001162200000000116400000000011638000000001164000281000000000000005361000000000062308262000000000000009999123100000010000000000000BRBCRICTF009147
012019041212BMLC11B     010FII BMBRC LCCI  ER  MB   R$  000000000766000000000076670000000007600000000000765900000000076670000000007520000000000766700004000000000000000018000000000000137869000000000000009999123100000010000000000000BRBMLCCTF004187
012019041212BNFS11      010FII BANRISULCI           R$  000000001180000000000118990000000011800000000001180600000000118790000000011811000000001189800046000000000000000632000000000007461734000000000000009999123100000010000000000000BRBNFSCTF000179
012019041212BPFF11      010FII ABSOLUTOCI           R$  000000000919300000000091930000000009055000000000913900000000091400000000009100000000000914000091000000000000002303000000000021048981000000000000009999123100000010000000000000BRBPFFCTF002173
012019041212BRCR11      010FII BC FUND CI  ER       R$  000000000928700000000093480000000009250000000000929000000000092550000000009255000000000926901502000000000000025591000000000237762120000000000000009999123100000010000000000000BRBRCRCTF000201
012019041212BTCR11      010FII BTG CRI CI  ER       R$  000000001134000000000113400000000011330000000001133900000000113300000000010800000000001133900007000000000000000158000000000001791700000000000000009999123100000010000000000000BRBTCRCTF006111
012019041212CARE11      010FII DEA CARECI           R$  000000000013600000000001400000000000134000000000013600000000001390000000000137000000000013900140000000000000004891000000000000665988000000000000009999123100000010000000000000BRCARECTF000102
012019041212CBOP11      010FII C BRANCOCI           R$  000000000715000000000071500000000007100000000000713500000000071500000000007110000000000715000069000000000000000562000000000004010128000000000000009999123100000010000000000000BRCBOPCTF001168
012019041212CEOC11      010FII CEO CCP CI  ER       R$  000000000857000000000085890000000008451000000000854200000000084510000000008451000000000856900101000000000000001136000000000009704282000000000000009999123100000010000000000000BRCEOCCTF003153
012019041212CNES11      010FII CENESP  CI           R$  000000000758200000000075820000000007526000000000754900000000075260000000007526000000000756900035000000000000000575000000000004340815000000000000009999123100000010000000000000BRCNESCTF001196
012019041212CPTS11B     010FII CAPI SECCI      MB   R$  000000001000100000000100590000000010000000000001002300000000100050000000010010000000001004000092000000000000002928000000000029350012000000000000009999123100000010000000000000BRCPTSCTF004158
012019041212CTXT11      010FII C TEXTILCI           R$  000000000620000000000062000000000006115000000000617200000000061890000000006116000000000618900082000000000000000531000000000003277704000000000000009999123100000010000000000000BRCTXTCTF014176
012019041212CXCE11B     010FII CX CEDAECI      MB   R$  000000022677300000002278000000000225505000000022712100000002275000000000226200000000022750000022000000000000000068000000000015444290000000000000009999123100000010000000000000BRCXCECTF004205
012019041212CXRI11      010FII CX RBRAVCI           R$  000000010060100000001019950000000100600000000010077700000001008000000000100700000000010080000018000000000000000055000000000005542788000000000000009999123100000010000000000000BRCXRICTF003165
012019041212DMAC11      010FII MAC     CI  ERA      R$  000000007696800000000769680000000076968000000007696800000000769680000000074550000000007696800002000000000000000020000000000001539360000000000000009999123100000010000000000000BRDMACCTF003108
012019041212DOMC11      010FII DOMO    CI           R$  000000004950000000000505000000000049500000000005023000000000502000000000048501000000005020000006000000000000000224000000000011251600000000000000009999123100000010000000000000BRDOMCCTF004131
012019041212EDFO11B     010FII OURINVESCI      MB   R$  000000003115000000000311500000000031150000000003115000000000311500000000030801000000003115000003000000000000000035000000000001090250000000000000009999123100000010000000000000BREDFOCTF004260
012019041212EDGA11      010FII GALERIA CI           R$  000000000482000000000048600000000004820000000000483600000000048490000000004846000000000484900056000000000000001923000000000009299943000000000000009999123100000010000000000000BREDGACTF001179
012019041212EURO11      010FII EUROPAR CI           R$  000000001545000000000154990000000015311000000001536800000000153520000000015352000000001550000019000000000000000108000000000001659750000000000000009999123100000010000000000000BREUROCTF011297
012019041212FAED11      010FII ANH EDUCCI  ER       R$  000000002179900000000218000000000021712000000002178200000000217120000000021650000000002175000041000000000000000407000000000008865555000000000000009999123100000010000000000000BRFAEDCTF003215
012019041212FAMB11B     010FII ALMIRANTCI      MB   R$  000000023430100000002349890000000233000000000023369800000002332000000000233200000000023350000057000000000000000102000000000023837270000000000000009999123100000010000000000000BRFAMBCTF018293
012019041212FCFL11      010FII CAMPUSFLCI           R$  000000020600000000002060000000000205301000000020593500000002053010000000205000000000020600000026000000000000000058000000000011944241000000000000009999123100000010000000000000BRFCFLCTF009205
012019041212FEXC11      010FII EXCELLENCI  ER       R$  000000001069000000000107590000000010690000000001072400000000107300000000010730000000001075900097000000000000001051000000000011271679000000000000009999123100000010000000000000BRFEXCCTF007219
012019041212FFCI11      010FII RIOB RC CI  ER       R$  000000001749900000000175000000000017300000000001743100000000174100000000017410000000001744900326000000000000002982000000000051981171000000000000009999123100000010000000000000BRFFCICTF005290
012019041212FIGS11      010FII GEN SHOPCI           R$  000000000667700000000069000000000006657000000000677800000000067960000000006792000000000679600564000000000000010391000000000070432558000000000000009999123100000010000000000000BRFIGSCTF009169
012019041212FIIB11      010FII INDL BR CI           R$  000000004380000000000439000000000043695000000004378000000000438000000000043797000000004380000255000000000000002567000000000112384832000000000000009999123100000010000000000000BRFIIBCTF001189
012019041212FIIP11B     010FII RB CAP ICI      MB   R$  000000001932000000000197490000000019255000000001945600000000197470000000019430000000001974700052000000000000000769000000000014961768000000000000009999123100000010000000000000BRFIIPCTF001212
012019041212FIVN11      010FII VIDANOVACI           R$  000000000030000000000003010000000000290000000000029700000000002990000000000299000000000030000043000000000000001470000000000000437633000000000000009999123100000010000000000000BRFIVNCTF009100
012019041212FIXX11      010FII FATORFIXCI           R$  000000000877500000000087880000000008602000000000871800000000086990000000008604000000000869900054000000000000000617000000000005379493000000000000009999123100000010000000000000BRFIXXCTF004170
012019041212FLMA11      010FII S F LIMACI  ER       R$  000000000031600000000003350000000000313000000000032300000000003200000000000320000000000032201338000000000000052802000000000017056190000000000000009999123100000010000000000000BRFLMACTF009279
012019041212FLRP11      010FII FLORIPA CI           R$  000000012950000000001299490000000129500000000012990200000001299490000000129399000000012994900011000000000000000016000000000002078432000000000000009999123100000010000000000000BRFLRPCTF006210
012019041212FMOF11      010FII MEMORIALCI           R$  000000000831000000000083990000000007900000000000793500000000079000000000007900000000000840000015000000000000000466000000000003697930000000000000009999123100000010000000000000BRFMOFCTF010246
012019041212FOFT11      010FII HTOPFOF2CI           R$  000000000920000000000092000000000009003000000000915700000000091990000000009005000000000919900007000000000000000013000000000000119051000000000000009999123100000010000000000000BRFOFTCTF007137
012019041212FPAB11      010FII A BRANCACI           R$  000000003620000000000362000000000035999000000003613500000000362000000000035901000000003620000007000000000000000152000000000005492599000000000000009999123100000010000000000000BRFPABCTF011252
012019041212FVBI11      010FII VBI 4440CI           R$  000000001297500000000129750000000012745000000001287400000000129000000000012825000000001290000205000000000000003327000000000042833241000000000000009999123100000010000000000000BRFVBICTF004182
